:020000040800F2
:100000003804002001010008090100080B01000864
:100010000D0100080F010008110100080000000098
:1000200000000000000000000000000013010008B4
:100030001501000800000000170100081901000860
:100040001B0100081B0100081B0100081B01000820
:100050001B0100081B0100081B0100081B01000810
:100060001B0100081B0100081B0100081B01000800
:100070001B0100081B0100081B0100081B010008F0
:100080001B0100081B0100081B0100081B010008E0
:100090001B0100081B0100081B0100081B010008D0
:1000A0001B0100081B0100081B0100081B010008C0
:1000B0001B0100081B010008B50B00081B0100080C
:1000C0001B0100081B0100081B0100081B010008A0
:1000D0001B0100081B0100081B0100081B01000890
:1000E0001B0100081B0100081B010008DFF80CD0F1
:1000F00000F006F900480047A91000083804002065
:100100000648804706480047FEE7FEE7FEE7FEE7B1
:10011000FEE7FEE7FEE7FEE7FEE7FEE7E90600088A
:10012000ED000008F0B480EA0102D40F4200B2EB07
:10013000410F02D20246084611464A0042D0C30D82
:10014000DDB2C1F3C752AD1A202D35DAC1F3160165
:1001500041F4000204B15242C5F1200602FA06F150
:100160002A411044B3EBD05F23D0C4B1012DA0EBE2
:10017000C35009DCF0BC4FF0004202EAC352DBB2CC
:1001800000F5000000F08DB8400000F1807000EB39
:10019000C350A0F1807040EAD170490009E04908DD
:1001A00041EAC071A0EBC35000F50000400800EB2D
:1001B000C350F0BC00F06CB86142012202EB410177
:1001C000001BF6E7F0BC704781F00041AAE780F021
:1001D0000040A7E780EA010210B502F000434000AA
:1001E00022D04A001FD0010E01EB1261C0F356006D
:1001F000C2F3560240F4000042F40002A0FB0220C9
:1002000000047F39140400D0401C50EA124001D48D
:100210004000491EC2B20C0604EBD010401C40083E
:10022000802A02D003E0002010BD20F00100002948
:1002300000DA0020184310BDC10F80EAE0700844C6
:10024000CA079623002100F02CB8962300221146FD
:1002500000F027B820F00040C10DC0F3160040F4B4
:1002600000007F2901DA00207047962903DCC1F1E4
:100270009601C8407047963988407047002801DBD6
:10028000C0F10040002901DBC1F10041814270470B
:100290000029A8BF7047401C490008BF20F001009A
:1002A000704710B4B0FA80FC00FA0CF050EA010478
:1002B00004BF10BC704749B1CCF1200421FA04F40A
:1002C00011FA0CF118BF012121430843A3EB0C01E3
:1002D000CB1D4FEA00614FEA102042BF002010BC46
:1002E000704700EBC35010440029A4BF10BC7047F6
:1002F000401C490008BF20F0010010BC70470000FE
:10030000064C074D06E0E06840F0010394E8070062
:1003100098471034AC42F6D3FFF7ECFED410000837
:10032000F41000082DE9F0410246002500260020C7
:1003300000230024002791F803C00CF00F0591F86A
:1003400003C00CF0100CBCF1000F03D091F802C0F8
:100350004CEA050591F800C0BCF1000F31D01468DB
:1003600000202BE04FF0010C0CFA00F3B1F800C0B4
:100370000CEA03069E4220D183004FF00F0C0CFACA
:1003800003F7BC4305FA03FC4CEA040491F803C0EC
:10039000BCF1280F06D14FF0010C0CFA00FCC2F89A
:1003A00014C00AE091F803C0BCF1480F05D14FF02A
:1003B000010C0CFA00FCC2F810C0401C0828D1D374
:1003C0001460B1F800C0BCF1FF0F34DD54680020A8
:1003D0002EE000F1080C4FF0010808FA0CF3B1F818
:1003E00000C00CEA03069E4221D183004FF00F0C9F
:1003F0000CFA03F7BC4305FA03FC4CEA040491F839
:1004000003C0BCF1280F05D100F1080C08FA0CF864
:10041000C2F8148091F803C0BCF1480F07D100F175
:10042000080C4FF0010808FA0CF8C2F81080401CC4
:100430000828CED35460BDE8F08110B500F0B8FABA
:1004400010BD10B50446204600F09EFA204600F08C
:10045000A5FA10BD70B5002100230F22C47804B3A3
:10046000154C246804F4E064C4F5E064210AC1F189
:100470000403CA40447804FA03F184781440214309
:1004800009010E4C0678A155047804F01F050124DB
:10049000AC4005786D11AD0005F1E025C5F80041CF
:1004A00009E0047804F01F050124AC40044D0678EF
:1004B000761145F8264070BD0CED00E000E400E048
:1004C00080E100E002490143024A116070470000E8
:1004D0000000FA050CED00E02DE9F047044628483D
:1004E0004480408826490988401A25498880888A9E
:1004F000FFF7ABFE0546224881692846FFF7BEFE9E
:1005000006D21F48808A1E49898808441C4988826F
:100510001B4989881A4AD288881AFFF78DFE8046BF
:10052000174801694046FFF755FE06461449888A78
:10053000FFF78BFE82461248C1685046FFF74AFE1D
:1005400080460F498888FFF780FE82460C48816804
:100550005046FFF73FFE81464146FFF7E3FD074661
:100560003146FFF7DFFD0546FFF774FE0449C882F8
:1005700008468088C8800846C08ABDE8F087000029
:1005800018000020002008494880C882C880888060
:10059000064888610020888205480861C860886034
:1005A0000020088070470000180000200000A041D3
:1005B0000000A0400149088070470000180000209A
:1005C00029B1064AD2690243044BDA6104E0034AC6
:1005D000D2698243014BDA6170470000001002408B
:1005E00029B1064A92690243044B9A6104E0034A26
:1005F00092698243014B9A617047000000100240EB
:1006000010B500F001F810BD0CB50020019000906D
:100610003348006840F480303149086000BF3048FA
:10062000006800F4003000900198401C0190009890
:1006300018B90198B0F5A06FF1D12948006800F40D
:10064000003010B10120009001E0002000900098DF
:10065000012843D12348006840F010002149086078
:100660000846006820F0030008600846006840F073
:10067000020008601A484068194948600846406806
:1006800048600846406840F480604860084640681A
:1006900020F47C1048600846406840F4E810486048
:1006A0000846006840F08070086000BF0C48006891
:1006B00000F000700028F9D00948406820F00300DD
:1006C000074948600846406840F00200486000BFA3
:1006D0000348406800F00C000828F9D10CBD000068
:1006E000001002400020024010B51348006840F09E
:1006F00001001149086008464068104908400E4949
:100700004860084600680E4908400B4908600846E2
:10071000006820F4802008600846406820F4FE004D
:1007200048604FF41F008860FFF76AFF4FF00060D9
:100730000449086010BD0000001002400000FFF8EE
:10074000FFFFF6FE08ED00E0F0B50C46154600226E
:100750000021068C4FF6FE773E400684028B018C0A
:100760004FF60C7632407E1C06EA03162E433243C7
:10077000104EB0420ED0104EB0420BD0B0F1804FB0
:1007800008D00E4EB04205D00D4EB04202D00D4EF4
:10079000B04206D14FF6FD76314044F001063143B8
:1007A00005E04FF6F576314044F00106314302830F
:1007B0000184F0BD002C01400034014000040040E1
:1007C00000080040000C0040F0B50C461546002221
:1007D00000210026078C4FF6EF7C07EA0C07078400
:1007E000028B018C4FF6FF7707EA041640F6FF47AD
:1007F0003A404FF6FF7707EA03373A434FF6FF7761
:1008000007EA05273A43114FB8420ED0104FB842BD
:100810000BD0B0F1804F08D00E4FB84205D00E4F2C
:10082000B84202D00D4FB84206D14FF6DF773940BB
:1008300046F01007394305E04FF65F77394044F042
:100840001007394302830184F0BD0000002C0140F1
:10085000003401400004004000080040000C00404B
:10086000F0B50C461546002200210026078C4FF6F5
:10087000FF6C07EA0C070784828B018C4FF6FF7729
:1008800007EA04264FF60C773A404FF6FF7707EA5F
:1008900003172F433A43114FB8420ED0104FB842BE
:1008A0000BD0B0F1804F08D00E4FB84205D00E4F9C
:1008B000B84202D00D4FB84206D14FF6FF5739402B
:1008C00046F48077394305E04FF2FF57394044F44E
:1008D0008077394382830184F0BD0000002C014001
:1008E000003401400004004000080040000C0040BB
:1008F000F0B50C461546002200210026078C4EF666
:10090000FF7C07EA0C070784828B018C4FF6FF7788
:1009100007EA043640F6FF473A404FF6FF7707EA0A
:1009200005273A434FF6FF7707EA03373A43114F5B
:10093000B8420ED0104FB8420BD0B0F1804F08D063
:100940000E4FB84205D00E4FB84202D00D4FB842FC
:1009500006D14DF6FF77394046F48057394305E01C
:1009600047F6FF57394044F4805739438283018466
:10097000F0BD0000002C01400034014000040040A4
:1009800000080040000C004010B504462146024813
:1009900000F0E9FA10BD0000002C014010B504463B
:1009A0002146024800F0E1FA10BD0000002C014091
:1009B00000B58DB001210420FFF712FE0121C8020D
:1009C000FFF70EFE18208DF833004FF48070ADF85D
:1009D000300003208DF832000CA93748FFF7A2FC45
:1009E00018208DF833004FF40070ADF8300003206C
:1009F0008DF832000CA93048FFF794FC0020ADF8C8
:100A00002A00ADF826004FF47A70ADF828000020D7
:100A1000ADF824008DF82C0009A9284800F0D6FA7A
:100A20004FF48070ADF820006020ADF81400002075
:100A3000ADF81C00ADF818000120ADF816004FF419
:100A4000FA70ADF81A0005A91C4800F0D7F9022089
:100A5000ADF81C0005A9194800F026FA082117482E
:100A600000F018FA0821154800F070FA4FF48040A1
:100A7000ADF810000020ADF80C004FF40050ADF8B8
:100A80000E000020ADF80A004FF48070ADF80800A9
:100A90008000ADF806004000ADF8040001A9074849
:100AA00000F0E0F80121054800F0EFF801210348CB
:100AB00000F0F7F80DB000BD00080140002C014027
:100AC00000B587B001210420FFF78AFD0121022033
:100AD000FFF776FD48208DF81B00C020ADF8180008
:100AE00003208DF81A0006A91848FFF71BFC002008
:100AF000ADF81200ADF80E004FF6FF70ADF8100023
:100B00000020ADF80C0003A9114800F05FFA0A2399
:100B10001A4603210E4800F0D3F8684600F05CF94D
:100B20000620ADF808006946094800F0FFF80021EA
:100B3000074800F01CFA01221146054800F055F95B
:100B40000121034800F0A1F807B000BD00080140F2
:100B5000000400401FB501210420FFF731FD0020F3
:100B6000ADF80A00ADF8060042F21070ADF80800CA
:100B70004720ADF8040001A90D4800F027FA1E2017
:100B80008DF8000001208DF8030002208DF801008F
:100B90008DF802006846FFF75DFC0122114604480B
:100BA00000F023F90121024800F06FF81FBD00009A
:100BB0000008004010B50121224800F0A5F80028E7
:100BC0003ED0214800F09DF82049086008460068A2
:100BD0001F490968401A1F4908601C4800681C49E1
:100BE00008601C4800681C4988420AD219480068FD
:100BF000090C08441749086008460078174908702E
:100C000010E01448006844F6206188420AD2114876
:100C10000068A0F57F40FF380E490860084600785C
:100C20000E4908700D480078FFF756FC0C49088003
:100C300008460088FFF705FC0121024800F022F871
:100C400010BD000000080040000400400400002027
:100C50000000002008000020E0B1FFFF1400002089
:100C6000160000200A884B881A438B881A43CB88C9
:100C70001A430B891A434B891A438B891A43A0F8EC
:100C800044207047CA430282704721B1028842F073
:100C90000102028004E002884FF6FE731A400280CF
:100CA000704731B1B0F8442042F40042A0F844202B
:100CB00005E0B0F84420C2F30E02A0F844207047CB
:100CC000F0B50C4615461E4600210022002301897E
:100CD000028B038C4FF6F877394021434FF6FC47DF
:100CE0003A4040F201173A434FF6DD773B404FF66A
:100CF000FF7707EA06172F433B43018102830384F2
:100D0000F0BD0146888C704730B5024600200023B4
:100D10000024158A05EA0103958905EA010413B147
:100D20000CB1012000E0002030BD000070B5054688
:100D30000C46244885420ED0234885420BD0B5F19D
:100D4000804F08D02148854205D02148854202D0F5
:100D50002048854200D100E000BF208850B9238997
:100D6000A28861882846FFF7EFFCE188284600F05A
:100D700000F925E0208804280AD12389A288618807
:100D80002846FFF721FDE188284600F0FBF817E030
:100D9000208808280AD12389A28861882846FFF77D
:100DA0005FFDE188284600F0FAF809E02389A2886F
:100DB00061882846FFF79CFDE188284600F0F8F896
:100DC00070BD0000002C01400034014000040040D0
:100DD00000080040000C00400021018041800121FA
:100DE00081800021C180018170471AB183890B4342
:100DF000838102E083898B438381704770B500242F
:100E000000220023058C4FF6FE7635400584028CC7
:100E10008388048B4FF68F752C40B51E2C400D88AF
:100E20002C43751E2A400D892A434D882A43144DB0
:100E3000A8420BD0134DA84208D0134DA84205D0AC
:100E4000124DA84202D0124DA84213D14FF6F775A9
:100E50002A404D892A434FF6FB752A408D882A4344
:100E60004FF6FF652B404FF6FF552B408D892B43E6
:100E7000CD892B4383800483CD888586028470BD11
:100E8000002C01400034014000400140004401407A
:100E9000004801400A460021018B4FF6F7731940C4
:100EA000114301837047000070B500240022002325
:100EB000058C4FF6EF7635400584028C8388048BD1
:100EC00048F6FF752C404FF6FF452C400D884FF635
:100ED000FF7606EA05252C434FF6DF752A400D897B
:100EE00006EA05152A434D8806EA05152A43154DDD
:100EF000A84202D0144DA8421DD14FF67F752A405A
:100F00004D894FF6FF7606EA05152A434FF6BF7561
:100F10002A408D8806EA05152A434FF6FF352B40F7
:100F20004FF2FF752B408D8906EA85052B43CD894D
:100F300006EA85052B4383800483CD8805870284D8
:100F400070BD0000002C0140003401400A46002121
:100F5000018B4FF2FF7319404FF6FF7303EA022330
:100F600019430183704781867047018770478184E8
:100F70007047028B4FF6F3731A400283028B0A43C9
:100F800002837047028B4FF2FF331A400283028BB9
:100F90004FF6FF7303EA01231A4302837047828BE3
:100FA0004FF6F3731A408283828B0A438283704721
:100FB000828B4FF2FF331A408283828B4FF6FF738E
:100FC00003EA01231A43828370470000002202884B
:100FD0001D4B98420ED01D4B98420BD0B0F1804F64
:100FE00008D01B4B984205D01A4B984202D01A4B9E
:100FF000984204D14FF68F731A404B881A43174B0F
:10100000984207D0164B984204D04FF6FF431A403F
:10101000CB881A4302808B8883850B8803850A4B13
:1010200098420BD0094B984208D00E4B984205D0FD
:101030000D4B984202D00D4B984201D10B7A03869A
:101040000123838270470000002C014000340140DE
:101050000004004000080040000C00400010004068
:10106000001400400040014000440140004801409D
:1010700002E008C8121F08C1002AFAD17047704761
:10108000002001E001C1121F002AFBD170476E2130
:1010900007E0C2B201E0531EDAB2002AFBDC4B1EAD
:1010A000D9B20029F5DC704700BFFFF7C6F902206E
:1010B000FFF708FAFFF704FDFFF74CFD4FF4FA6065
:1010C000FFF7E5FFFFF75EFAD020FFF773FA00BFE6
:1010D000FEE70000F41000080000002018000000E7
:1010E000701000080C1100081800002020040000F7
:1010F0008010000800000000000000000000000058
:0C110000000000000000000000000000E3
:04000005080000ED02
:00000001FF
